{
  "_format": "hh-sol-artifact-1",
  "contractName": "MagicLamp",
  "sourceName": "contracts/MagicLamp.sol",
  "abi": [
    {
      "inputs": [
        {
          "internalType": "address",
          "name": "_talentLayerServiceAddress",
          "type": "address"
        },
        {
          "internalType": "address",
          "name": "_talentLayerIDAddress",
          "type": "address"
        },
        {
          "internalType": "address",
          "name": "_talentLayerEscrowAddress",
          "type": "address"
        },
        {
          "internalType": "address",
          "name": "_talentLayerPlatformIdAddress",
          "type": "address"
        }
      ],
      "stateMutability": "payable",
      "type": "constructor"
    },
    {
      "inputs": [],
      "name": "NotDelegate",
      "type": "error"
    },
    {
      "anonymous": false,
      "inputs": [
        {
          "indexed": false,
          "internalType": "uint256",
          "name": "genieId",
          "type": "uint256"
        },
        {
          "indexed": false,
          "internalType": "address",
          "name": "genieAddress",
          "type": "address"
        },
        {
          "indexed": false,
          "internalType": "address",
          "name": "ownerAddress",
          "type": "address"
        },
        {
          "indexed": false,
          "internalType": "uint256",
          "name": "ownerTalentLayerId",
          "type": "uint256"
        },
        {
          "indexed": false,
          "internalType": "uint256",
          "name": "price",
          "type": "uint256"
        },
        {
          "indexed": false,
          "internalType": "string",
          "name": "schemaCid",
          "type": "string"
        },
        {
          "indexed": false,
          "internalType": "string",
          "name": "serviceCid",
          "type": "string"
        },
        {
          "indexed": false,
          "internalType": "string",
          "name": "proposalCid",
          "type": "string"
        }
      ],
      "name": "NewGenie",
      "type": "event"
    },
    {
      "anonymous": false,
      "inputs": [
        {
          "indexed": false,
          "internalType": "uint256",
          "name": "genieId",
          "type": "uint256"
        },
        {
          "indexed": false,
          "internalType": "address",
          "name": "userAddress",
          "type": "address"
        },
        {
          "indexed": false,
          "internalType": "uint8",
          "name": "_rating",
          "type": "uint8"
        }
      ],
      "name": "NewRating",
      "type": "event"
    },
    {
      "anonymous": false,
      "inputs": [
        {
          "indexed": false,
          "internalType": "uint256",
          "name": "wishId",
          "type": "uint256"
        },
        {
          "indexed": false,
          "internalType": "uint256",
          "name": "userId",
          "type": "uint256"
        },
        {
          "indexed": false,
          "internalType": "uint256",
          "name": "genieId",
          "type": "uint256"
        },
        {
          "indexed": false,
          "internalType": "uint256",
          "name": "serviceId",
          "type": "uint256"
        },
        {
          "indexed": false,
          "internalType": "uint256",
          "name": "proposalId",
          "type": "uint256"
        },
        {
          "indexed": false,
          "internalType": "uint256",
          "name": "transactionId",
          "type": "uint256"
        }
      ],
      "name": "NewWish",
      "type": "event"
    },
    {
      "anonymous": false,
      "inputs": [
        {
          "indexed": true,
          "internalType": "address",
          "name": "previousOwner",
          "type": "address"
        },
        {
          "indexed": true,
          "internalType": "address",
          "name": "newOwner",
          "type": "address"
        }
      ],
      "name": "OwnershipTransferred",
      "type": "event"
    },
    {
      "anonymous": false,
      "inputs": [
        {
          "indexed": false,
          "internalType": "uint256",
          "name": "genieId",
          "type": "uint256"
        },
        {
          "indexed": false,
          "internalType": "address",
          "name": "userAddress",
          "type": "address"
        },
        {
          "indexed": false,
          "internalType": "uint8",
          "name": "_rating",
          "type": "uint8"
        },
        {
          "indexed": false,
          "internalType": "int8",
          "name": "diffRating",
          "type": "int8"
        }
      ],
      "name": "UpdateRating",
      "type": "event"
    },
    {
      "anonymous": false,
      "inputs": [
        {
          "indexed": false,
          "internalType": "uint256",
          "name": "wishId",
          "type": "uint256"
        }
      ],
      "name": "WishCancelled",
      "type": "event"
    },
    {
      "anonymous": false,
      "inputs": [
        {
          "indexed": false,
          "internalType": "uint256",
          "name": "wishId",
          "type": "uint256"
        }
      ],
      "name": "WishCompleted",
      "type": "event"
    },
    {
      "inputs": [
        {
          "internalType": "uint256",
          "name": "_genieId",
          "type": "uint256"
        },
        {
          "internalType": "uint256",
          "name": "_wishId",
          "type": "uint256"
        }
      ],
      "name": "cancelExecution",
      "outputs": [],
      "stateMutability": "nonpayable",
      "type": "function"
    },
    {
      "inputs": [
        {
          "internalType": "uint256",
          "name": "_genieId",
          "type": "uint256"
        },
        {
          "internalType": "uint256",
          "name": "_wishId",
          "type": "uint256"
        }
      ],
      "name": "confirmExecution",
      "outputs": [],
      "stateMutability": "nonpayable",
      "type": "function"
    },
    {
      "inputs": [
        {
          "internalType": "address",
          "name": "_genieAddress",
          "type": "address"
        },
        {
          "internalType": "address",
          "name": "_ownerAddress",
          "type": "address"
        },
        {
          "internalType": "uint256",
          "name": "_ownerTalentLayerId",
          "type": "uint256"
        },
        {
          "internalType": "uint256",
          "name": "_price",
          "type": "uint256"
        },
        {
          "internalType": "string",
          "name": "_schemaCid",
          "type": "string"
        },
        {
          "internalType": "string",
          "name": "_serviceCid",
          "type": "string"
        },
        {
          "internalType": "string",
          "name": "_proposalCid",
          "type": "string"
        }
      ],
      "name": "createGenie",
      "outputs": [
        {
          "internalType": "uint256",
          "name": "newGenieId",
          "type": "uint256"
        }
      ],
      "stateMutability": "nonpayable",
      "type": "function"
    },
    {
      "inputs": [
        {
          "internalType": "uint256",
          "name": "",
          "type": "uint256"
        }
      ],
      "name": "genies",
      "outputs": [
        {
          "internalType": "uint256",
          "name": "id",
          "type": "uint256"
        },
        {
          "internalType": "address",
          "name": "genieAddress",
          "type": "address"
        },
        {
          "internalType": "address",
          "name": "ownerAddress",
          "type": "address"
        },
        {
          "internalType": "uint256",
          "name": "ownerTalentLayerId",
          "type": "uint256"
        },
        {
          "internalType": "uint256",
          "name": "price",
          "type": "uint256"
        },
        {
          "internalType": "string",
          "name": "schemaCid",
          "type": "string"
        },
        {
          "internalType": "string",
          "name": "serviceCid",
          "type": "string"
        },
        {
          "internalType": "string",
          "name": "proposalCid",
          "type": "string"
        }
      ],
      "stateMutability": "view",
      "type": "function"
    },
    {
      "inputs": [
        {
          "internalType": "uint256",
          "name": "_genieId",
          "type": "uint256"
        }
      ],
      "name": "getGenie",
      "outputs": [
        {
          "components": [
            {
              "internalType": "uint256",
              "name": "id",
              "type": "uint256"
            },
            {
              "internalType": "address",
              "name": "genieAddress",
              "type": "address"
            },
            {
              "internalType": "address",
              "name": "ownerAddress",
              "type": "address"
            },
            {
              "internalType": "uint256",
              "name": "ownerTalentLayerId",
              "type": "uint256"
            },
            {
              "internalType": "uint256",
              "name": "price",
              "type": "uint256"
            },
            {
              "internalType": "string",
              "name": "schemaCid",
              "type": "string"
            },
            {
              "internalType": "string",
              "name": "serviceCid",
              "type": "string"
            },
            {
              "internalType": "string",
              "name": "proposalCid",
              "type": "string"
            }
          ],
          "internalType": "struct MagicLamp.Genie",
          "name": "",
          "type": "tuple"
        }
      ],
      "stateMutability": "view",
      "type": "function"
    },
    {
      "inputs": [
        {
          "internalType": "address",
          "name": "_userAddress",
          "type": "address"
        },
        {
          "internalType": "uint256",
          "name": "_genieId",
          "type": "uint256"
        }
      ],
      "name": "getHasUsedGenie",
      "outputs": [
        {
          "internalType": "bool",
          "name": "",
          "type": "bool"
        }
      ],
      "stateMutability": "view",
      "type": "function"
    },
    {
      "inputs": [
        {
          "internalType": "uint256",
          "name": "_wishId",
          "type": "uint256"
        }
      ],
      "name": "getWish",
      "outputs": [
        {
          "components": [
            {
              "internalType": "uint256",
              "name": "id",
              "type": "uint256"
            },
            {
              "internalType": "enum MagicLamp.WishStatus",
              "name": "status",
              "type": "uint8"
            },
            {
              "internalType": "uint256",
              "name": "genieId",
              "type": "uint256"
            },
            {
              "internalType": "uint256",
              "name": "userId",
              "type": "uint256"
            },
            {
              "internalType": "uint256",
              "name": "serviceId",
              "type": "uint256"
            },
            {
              "internalType": "uint256",
              "name": "transactionId",
              "type": "uint256"
            }
          ],
          "internalType": "struct MagicLamp.Wish",
          "name": "",
          "type": "tuple"
        }
      ],
      "stateMutability": "view",
      "type": "function"
    },
    {
      "inputs": [
        {
          "internalType": "uint256",
          "name": "_userId",
          "type": "uint256"
        },
        {
          "internalType": "uint256",
          "name": "_genieId",
          "type": "uint256"
        }
      ],
      "name": "makeWish",
      "outputs": [
        {
          "internalType": "uint256",
          "name": "newWishId",
          "type": "uint256"
        }
      ],
      "stateMutability": "payable",
      "type": "function"
    },
    {
      "inputs": [],
      "name": "owner",
      "outputs": [
        {
          "internalType": "address",
          "name": "",
          "type": "address"
        }
      ],
      "stateMutability": "view",
      "type": "function"
    },
    {
      "inputs": [
        {
          "internalType": "uint256",
          "name": "_genieId",
          "type": "uint256"
        },
        {
          "internalType": "uint8",
          "name": "_rating",
          "type": "uint8"
        }
      ],
      "name": "rate",
      "outputs": [],
      "stateMutability": "nonpayable",
      "type": "function"
    },
    {
      "inputs": [],
      "name": "renounceOwnership",
      "outputs": [],
      "stateMutability": "nonpayable",
      "type": "function"
    },
    {
      "inputs": [
        {
          "internalType": "address",
          "name": "newOwner",
          "type": "address"
        }
      ],
      "name": "transferOwnership",
      "outputs": [],
      "stateMutability": "nonpayable",
      "type": "function"
    },
    {
      "inputs": [
        {
          "internalType": "uint256",
          "name": "",
          "type": "uint256"
        }
      ],
      "name": "wishes",
      "outputs": [
        {
          "internalType": "uint256",
          "name": "id",
          "type": "uint256"
        },
        {
          "internalType": "enum MagicLamp.WishStatus",
          "name": "status",
          "type": "uint8"
        },
        {
          "internalType": "uint256",
          "name": "genieId",
          "type": "uint256"
        },
        {
          "internalType": "uint256",
          "name": "userId",
          "type": "uint256"
        },
        {
          "internalType": "uint256",
          "name": "serviceId",
          "type": "uint256"
        },
        {
          "internalType": "uint256",
          "name": "transactionId",
          "type": "uint256"
        }
      ],
      "stateMutability": "view",
      "type": "function"
    }
  ],
  "bytecode": "0x60001960015560e0604052602e60808181529062002c6e60a039600290620000289082620001a6565b506001600755600160085560405162002c9c38038062002c9c83398101604081905262000055916200028f565b6200006033620000b1565b600a80546001600160a01b03199081166001600160a01b039586161790915560098054821695851695909517909455600b8054851692841692909217909155600c80549093169116179055620002ec565b600080546001600160a01b038381166001600160a01b0319831681178455604051919092169283917f8be0079c531659141344cd1fd0a4f28419497f9722a3daafe3b4186f6b6457e09190a35050565b634e487b7160e01b600052604160045260246000fd5b600181811c908216806200012c57607f821691505b6020821081036200014d57634e487b7160e01b600052602260045260246000fd5b50919050565b601f821115620001a157600081815260208120601f850160051c810160208610156200017c5750805b601f850160051c820191505b818110156200019d5782815560010162000188565b5050505b505050565b81516001600160401b03811115620001c257620001c262000101565b620001da81620001d3845462000117565b8462000153565b602080601f831160018114620002125760008415620001f95750858301515b600019600386901b1c1916600185901b1785556200019d565b600085815260208120601f198616915b82811015620002435788860151825594840194600190910190840162000222565b5085821015620002625787850151600019600388901b60f8161c191681555b5050505050600190811b01905550565b80516001600160a01b03811681146200028a57600080fd5b919050565b60008060008060808587031215620002a657600080fd5b620002b18562000272565b9350620002c16020860162000272565b9250620002d16040860162000272565b9150620002e16060860162000272565b905092959194509250565b61297280620002fc6000396000f3fe6080604052600436106100c25760003560e01c80638da5cb5b1161007f578063bccaaeaa11610059578063bccaaeaa14610253578063dca4717714610280578063f2fde38b146102a0578063fbc87cbd146102c057600080fd5b80638da5cb5b146101ea578063948d018714610212578063a6b1be231461023357600080fd5b806307aea171146100c7578063202cbac2146100e957806353f81cc41461011f578063715018a61461014f5780638037559e146101645780638820e46614610184575b600080fd5b3480156100d357600080fd5b506100e76100e2366004611e48565b6102f4565b005b3480156100f557600080fd5b50610109610104366004611e6a565b610751565b6040516101169190611ebb565b60405180910390f35b34801561012b57600080fd5b5061013f61013a366004611f1a565b61080b565b6040519015158152602001610116565b34801561015b57600080fd5b506100e7610839565b34801561017057600080fd5b506100e761017f366004611f46565b61084d565b34801561019057600080fd5b506101d861019f366004611e6a565b6004602081905260009182526040909120805460018201546002830154600384015494840154600590940154929460ff90921693909286565b60405161011696959493929190611f7c565b3480156101f657600080fd5b506000546040516001600160a01b039091168152602001610116565b610225610220366004611e48565b610a15565b604051908152602001610116565b34801561023f57600080fd5b506100e761024e366004611e48565b6111ac565b34801561025f57600080fd5b5061027361026e366004611e6a565b611547565b6040516101169190612003565b34801561028c57600080fd5b5061022561029b3660046120fe565b6117be565b3480156102ac57600080fd5b506100e76102bb3660046121d3565b611b3c565b3480156102cc57600080fd5b506102e06102db366004611e6a565b611bb5565b6040516101169897969594939291906121f7565b60008281526003602052604090206001015482906001600160a01b031633146103385760405162461bcd60e51b815260040161032f9061226f565b60405180910390fd5b6000828152600460208190526040808320600a54600382015492516331a9108f60e11b81529194936001600160a01b0390911692636352211e92610380920190815260200190565b602060405180830381865afa15801561039d573d6000803e3d6000fd5b505050506040513d601f19601f820116820180604052508101906103c191906122ca565b9050848260020154146103e65760405162461bcd60e51b815260040161032f906122e7565b6000600183015460ff16600281111561040157610401611e83565b146104445760405162461bcd60e51b815260206004820152601360248201527257697368206973206e6f742070656e64696e6760681b604482015260640161032f565b60008581526003602081815260408084208151610100810183528154815260018201546001600160a01b03908116948201949094526002820154909316918301919091529182015460608201526004820154608082015260058201805491929160a0840191906104b39061232e565b80601f01602080910402602001604051908101604052809291908181526020018280546104df9061232e565b801561052c5780601f106105015761010080835404028352916020019161052c565b820191906000526020600020905b81548152906001019060200180831161050f57829003601f168201915b505050505081526020016006820180546105459061232e565b80601f01602080910402602001604051908101604052809291908181526020018280546105719061232e565b80156105be5780601f10610593576101008083540402835291602001916105be565b820191906000526020600020905b8154815290600101906020018083116105a157829003601f168201915b505050505081526020016007820180546105d79061232e565b80601f01602080910402602001604051908101604052809291908181526020018280546106039061232e565b80156106505780601f1061062557610100808354040283529160200191610650565b820191906000526020600020905b81548152906001019060200180831161063357829003601f168201915b505050919092525050600b54600386015460058701546080850151604051633a1121cd60e01b81526004810193909352602483019190915260448201529293506001600160a01b031691633a1121cd9150606401600060405180830381600087803b1580156106be57600080fd5b505af11580156106d2573d6000803e3d6000fd5b505050506001838101805460ff1916828002179055506001600160a01b03821660009081526006602090815260408083208984528252918290208054600160ff1990911617905590518681527fd4d1a1f88bcb6e9638b0b61e2cd828e118e18ea4b6c5d004b5832b51bd0a2ed0910160405180910390a1505050505050565b61078b6040805160c08101909152600080825260208201908152602001600081526020016000815260200160008152602001600081525090565b600082815260046020908152604091829020825160c08101909352805483526001810154909183019060ff1660028111156107c8576107c8611e83565b60028111156107d9576107d9611e83565b815260028201546020820152600382015460408201526004820154606082015260059091015460809091015292915050565b6001600160a01b038216600090815260066020908152604080832084845290915290205460ff165b92915050565b610841611d9e565b61084b6000611df8565b565b336000908152600660209081526040808320858452909152902054829060ff166108b95760405162461bcd60e51b815260206004820181905260248201527f5573657220686173206e6f7420657865637574656420746869732067656e6965604482015260640161032f565b60008260ff161180156108d0575060058260ff1611155b61091c5760405162461bcd60e51b815260206004820152601e60248201527f526174696e67206d757374206265206265747765656e203120616e6420350000604482015260640161032f565b600083815260056020908152604080832033845290915290208054610100900460ff1661099d57805461ffff191660ff841690811761010017825560408051868152336020820152908101919091527f3b1c8e569a0b64ff13d4a95c71721452366e52d5197f50433b98e3157fe3f7b29060600160405180910390a1610a0f565b80546000906109af9060ff168561237e565b825460ff191660ff861690811784556040805188815233602082015290810191909152600082900b60608201529091507f82836cdd45aa735828564cbca535f1da4e89a0e1be0acb865652e8a14010f179906080015b60405180910390a1505b50505050565b60008181526003602081815260408084208151610100810183528154815260018201546001600160a01b03908116948201949094526002820154909316918301919091529182015460608201526004820154608082015260058201805484939160a0840191610a839061232e565b80601f0160208091040260200160405190810160405280929190818152602001828054610aaf9061232e565b8015610afc5780601f10610ad157610100808354040283529160200191610afc565b820191906000526020600020905b815481529060010190602001808311610adf57829003601f168201915b50505050508152602001600682018054610b159061232e565b80601f0160208091040260200160405190810160405280929190818152602001828054610b419061232e565b8015610b8e5780601f10610b6357610100808354040283529160200191610b8e565b820191906000526020600020905b815481529060010190602001808311610b7157829003601f168201915b50505050508152602001600782018054610ba79061232e565b80601f0160208091040260200160405190810160405280929190818152602001828054610bd39061232e565b8015610c205780601f10610bf557610100808354040283529160200191610c20565b820191906000526020600020905b815481529060010190602001808311610c0357829003601f168201915b505050919092525050600a546040516331a9108f60e11b8152600481018890529293506000926001600160a01b039091169150636352211e90602401602060405180830381865afa158015610c79573d6000803e3d6000fd5b505050506040513d601f19601f82011682018060405250810190610c9d91906122ca565b90506001600160a01b0381163314610d065760405162461bcd60e51b815260206004820152602660248201527f53656e646572206164647265737320646f6573206e6f74206f776e20746865206044820152651d5cd95c925960d21b606482015260840161032f565b600c54604051630b7a459360e31b8152600160048201526000916001600160a01b031690635bd22c9890602401600060405180830381865afa158015610d50573d6000803e3d6000fd5b505050506040513d6000823e601f3d908101601f19168201604052610d78919081019061246f565b90506000600b60009054906101000a90046001600160a01b03166001600160a01b031663f6e5826c6040518163ffffffff1660e01b8152600401602060405180830381865afa158015610dcf573d6000803e3d6000fd5b505050506040513d601f19601f82011682018060405250810190610df3919061259b565b61ffff169050600061271061ffff16836080015161ffff168660800151610e1a91906125b6565b846060015161ffff168760800151610e3291906125b6565b848860800151610e4291906125b6565b610e4c91906125cd565b610e5691906125cd565b610e6091906125e0565b8560800151610e6f91906125cd565b9050348114610ed15760405162461bcd60e51b815260206004820152602860248201527f6d73672e76616c756520646f6573206e6f74206d61746368207468652067656e604482015267696520707269636560c01b606482015260840161032f565b60095460c086015160405163699c764d60e11b81526000926001600160a01b03169163d338ec9a91610f0b918d9160019190600401612602565b6020604051808303816000875af1158015610f2a573d6000803e3d6000fd5b505050506040513d601f19601f82011682018060405250810190610f4e919061263f565b6009546060880151608089015160e08a0151600180546040516313ca98db60e01b81529697506000966001600160a01b03909616956313ca98db95610fa09590948a948a949293909290600401612658565b6020604051808303816000875af1158015610fbf573d6000803e3d6000fd5b505050506040513d601f19601f82011682018060405250810190610fe3919061263f565b90506000600b60009054906101000a90046001600160a01b03166001600160a01b031663aa4f411c858d868660028e60e001516040518763ffffffff1660e01b81526004016110369594939291906126b9565b60206040518083038185885af1158015611054573d6000803e3d6000fd5b50505050506040513d601f19601f82011682018060405250810190611079919061263f565b6008546040805160c081019091528181529192509060208101600081526020018c81526020018d815260200185815260200183815250600460008381526020019081526020016000206000820151816000015560208201518160010160006101000a81548160ff021916908360028111156110f6576110f6611e83565b021790555060408201518160020155606082015181600301556080820151816004015560a082015181600501559050507f2f38a0792f0b2aa2538b4fd1edcb5cb161fd951d69cc9fda90dcbf3b53e6f8d1818d8d87878760405161118296959493929190958652602086019490945260408501929092526060840152608083015260a082015260c00190565b60405180910390a16008600081546111999061276d565b909155509b9a5050505050505050505050565b60008281526003602052604090206001015482906001600160a01b031633146111e75760405162461bcd60e51b815260040161032f9061226f565b6000828152600460205260409020600281015484146112185760405162461bcd60e51b815260040161032f906122e7565b6000600182015460ff16600281111561123357611233611e83565b146112765760405162461bcd60e51b815260206004820152601360248201527257697368206973206e6f742070656e64696e6760681b604482015260640161032f565b60008481526003602081815260408084208151610100810183528154815260018201546001600160a01b03908116948201949094526002820154909316918301919091529182015460608201526004820154608082015260058201805491929160a0840191906112e59061232e565b80601f01602080910402602001604051908101604052809291908181526020018280546113119061232e565b801561135e5780601f106113335761010080835404028352916020019161135e565b820191906000526020600020905b81548152906001019060200180831161134157829003601f168201915b505050505081526020016006820180546113779061232e565b80601f01602080910402602001604051908101604052809291908181526020018280546113a39061232e565b80156113f05780601f106113c5576101008083540402835291602001916113f0565b820191906000526020600020905b8154815290600101906020018083116113d357829003601f168201915b505050505081526020016007820180546114099061232e565b80601f01602080910402602001604051908101604052809291908181526020018280546114359061232e565b80156114825780601f1061145757610100808354040283529160200191611482565b820191906000526020600020905b81548152906001019060200180831161146557829003601f168201915b505050919092525050600b54606083015160058601546080850151604051639dcc5daf60e01b81526004810193909352602483019190915260448201529293506001600160a01b031691639dcc5daf9150606401600060405180830381600087803b1580156114f057600080fd5b505af1158015611504573d6000803e3d6000fd5b5050505060018201805460ff191660021790556040518481527fbd5d67b814ce7d358eea94f5504b4fb2c23b26fd20184d93d217ea98fe9a3e6b90602001610a05565b6115a16040518061010001604052806000815260200160006001600160a01b0316815260200160006001600160a01b0316815260200160008152602001600081526020016060815260200160608152602001606081525090565b6000828152600360208181526040928390208351610100810185528154815260018201546001600160a01b03908116938201939093526002820154909216938201939093529082015460608201526004820154608082015260058201805491929160a0840191906116119061232e565b80601f016020809104026020016040519081016040528092919081815260200182805461163d9061232e565b801561168a5780601f1061165f5761010080835404028352916020019161168a565b820191906000526020600020905b81548152906001019060200180831161166d57829003601f168201915b505050505081526020016006820180546116a39061232e565b80601f01602080910402602001604051908101604052809291908181526020018280546116cf9061232e565b801561171c5780601f106116f15761010080835404028352916020019161171c565b820191906000526020600020905b8154815290600101906020018083116116ff57829003601f168201915b505050505081526020016007820180546117359061232e565b80601f01602080910402602001604051908101604052809291908181526020018280546117619061232e565b80156117ae5780601f10611783576101008083540402835291602001916117ae565b820191906000526020600020905b81548152906001019060200180831161179157829003601f168201915b5050505050815250509050919050565b60006001600160a01b038b166118165760405162461bcd60e51b815260206004820152601960248201527f47656e696520616464726573732063616e6e6f74206265203000000000000000604482015260640161032f565b6001600160a01b038a1661186c5760405162461bcd60e51b815260206004820152601960248201527f4f776e657220616464726573732063616e6e6f74206265203000000000000000604482015260640161032f565b600a546040516331a9108f60e11b8152600481018b90526001600160a01b038c8116921690636352211e90602401602060405180830381865afa1580156118b7573d6000803e3d6000fd5b505050506040513d601f19601f820116820180604052508101906118db91906122ca565b6001600160a01b03161461194b5760405162461bcd60e51b815260206004820152603160248201527f4f776e6572206164647265737320646f6573206e6f74206f776e20746865206f6044820152701ddb995c95185b195b9d13185e595c9259607a1b606482015260840161032f565b600060075490506040518061010001604052808281526020018d6001600160a01b031681526020018c6001600160a01b031681526020018b81526020018a815260200189898080601f016020809104026020016040519081016040528093929190818152602001838380828437600092019190915250505090825250604080516020601f8a0181900481028201810190925288815291810191908990899081908401838280828437600092019190915250505090825250604080516020601f88018190048102820181019092528681529181019190879087908190840183828082843760009201829052509390945250508381526003602081815260409283902085518155908501516001820180546001600160a01b03199081166001600160a01b0393841617909155938601516002830180549095169116179092556060840151908201556080830151600482015560a08301519091506005820190611ab290826127d5565b5060c08201516006820190611ac790826127d5565b5060e08201516007820190611adc90826127d5565b509050507f3cd69f7048cc5ff18c4b8675f3dbb186191fe35e8a259bb181c4fb04e31925de6007548d8d8d8d8d8d8d8d8d8d604051611b259b9a999897969594939291906128be565b60405180910390a16007600081546111999061276d565b611b44611d9e565b6001600160a01b038116611ba95760405162461bcd60e51b815260206004820152602660248201527f4f776e61626c653a206e6577206f776e657220697320746865207a65726f206160448201526564647265737360d01b606482015260840161032f565b611bb281611df8565b50565b600360208190526000918252604090912080546001820154600283015493830154600484015460058501805494966001600160a01b039485169694169492939192611bff9061232e565b80601f0160208091040260200160405190810160405280929190818152602001828054611c2b9061232e565b8015611c785780601f10611c4d57610100808354040283529160200191611c78565b820191906000526020600020905b815481529060010190602001808311611c5b57829003601f168201915b505050505090806006018054611c8d9061232e565b80601f0160208091040260200160405190810160405280929190818152602001828054611cb99061232e565b8015611d065780601f10611cdb57610100808354040283529160200191611d06565b820191906000526020600020905b815481529060010190602001808311611ce957829003601f168201915b505050505090806007018054611d1b9061232e565b80601f0160208091040260200160405190810160405280929190818152602001828054611d479061232e565b8015611d945780601f10611d6957610100808354040283529160200191611d94565b820191906000526020600020905b815481529060010190602001808311611d7757829003601f168201915b5050505050905088565b6000546001600160a01b0316331461084b5760405162461bcd60e51b815260206004820181905260248201527f4f776e61626c653a2063616c6c6572206973206e6f7420746865206f776e6572604482015260640161032f565b600080546001600160a01b038381166001600160a01b0319831681178455604051919092169283917f8be0079c531659141344cd1fd0a4f28419497f9722a3daafe3b4186f6b6457e09190a35050565b60008060408385031215611e5b57600080fd5b50508035926020909101359150565b600060208284031215611e7c57600080fd5b5035919050565b634e487b7160e01b600052602160045260246000fd5b60038110611eb757634e487b7160e01b600052602160045260246000fd5b9052565b8151815260208083015160c0830191611ed690840182611e99565b5060408301516040830152606083015160608301526080830151608083015260a083015160a083015292915050565b6001600160a01b0381168114611bb257600080fd5b60008060408385031215611f2d57600080fd5b8235611f3881611f05565b946020939093013593505050565b60008060408385031215611f5957600080fd5b82359150602083013560ff81168114611f7157600080fd5b809150509250929050565b86815260c08101611f906020830188611e99565b8560408301528460608301528360808301528260a0830152979650505050505050565b60005b83811015611fce578181015183820152602001611fb6565b50506000910152565b60008151808452611fef816020860160208601611fb3565b601f01601f19169290920160200192915050565b60208152815160208201526000602083015161202a60408401826001600160a01b03169052565b5060408301516001600160a01b03811660608401525060608301516080830152608083015160a083015260a08301516101008060c0850152612070610120850183611fd7565b915060c0850151601f19808685030160e087015261208e8483611fd7565b935060e08701519150808685030183870152506120ab8382611fd7565b9695505050505050565b60008083601f8401126120c757600080fd5b50813567ffffffffffffffff8111156120df57600080fd5b6020830191508360208285010111156120f757600080fd5b9250929050565b60008060008060008060008060008060e08b8d03121561211d57600080fd5b8a3561212881611f05565b995060208b013561213881611f05565b985060408b0135975060608b0135965060808b013567ffffffffffffffff8082111561216357600080fd5b61216f8e838f016120b5565b909850965060a08d013591508082111561218857600080fd5b6121948e838f016120b5565b909650945060c08d01359150808211156121ad57600080fd5b506121ba8d828e016120b5565b915080935050809150509295989b9194979a5092959850565b6000602082840312156121e557600080fd5b81356121f081611f05565b9392505050565b8881526001600160a01b03888116602083015287166040820152606081018690526080810185905261010060a0820181905260009061223883820187611fd7565b905082810360c084015261224c8186611fd7565b905082810360e08401526122608185611fd7565b9b9a5050505050505050505050565b6020808252602b908201527f4f6e6c79207468652072696768742047656e69652063616e2063616c6c20746860408201526a34b990333ab731ba34b7b760a91b606082015260800190565b80516122c581611f05565b919050565b6000602082840312156122dc57600080fd5b81516121f081611f05565b60208082526027908201527f5769736820646f6573206e6f742062656c6f6e6720746f207468652072696768604082015266742067656e696560c81b606082015260800190565b600181811c9082168061234257607f821691505b60208210810361236257634e487b7160e01b600052602260045260246000fd5b50919050565b634e487b7160e01b600052601160045260246000fd5b600082810b9082900b03607f198112607f8213171561083357610833612368565b634e487b7160e01b600052604160045260246000fd5b604051610160810167ffffffffffffffff811182821017156123d9576123d961239f565b60405290565b600082601f8301126123f057600080fd5b815167ffffffffffffffff8082111561240b5761240b61239f565b604051601f8301601f19908116603f011681019082821181831017156124335761243361239f565b8160405283815286602085880101111561244c57600080fd5b6120ab846020830160208901611fb3565b805161ffff811681146122c557600080fd5b60006020828403121561248157600080fd5b815167ffffffffffffffff8082111561249957600080fd5b9083019061016082860312156124ae57600080fd5b6124b66123b5565b825181526020830151828111156124cc57600080fd5b6124d8878286016123df565b6020830152506040830151828111156124f057600080fd5b6124fc878286016123df565b60408301525061250e6060840161245d565b606082015261251f6080840161245d565b608082015260a083015160a082015260c083015160c082015261254460e084016122ba565b60e0820152610100808401518381111561255d57600080fd5b612569888287016123df565b82840152505061012091508183015182820152610140915061258c8284016122ba565b91810191909152949350505050565b6000602082840312156125ad57600080fd5b6121f08261245d565b808202811582820484141761083357610833612368565b8082018082111561083357610833612368565b6000826125fd57634e487b7160e01b600052601260045260246000fd5b500490565b83815260ff831660208201526080604082015260006126246080830184611fd7565b82810360608401526000815260208101915050949350505050565b60006020828403121561265157600080fd5b5051919050565b600061010089835288602084015260018060a01b038816604084015286606084015260ff861660808401528060a084015261269581840186611fd7565b60c0840194909452505080820360e090910152600081526020019695505050505050565b85815260006020868184015285604084015260a06060840152600085546126df8161232e565b8060a087015260c0600180841660008114612701576001811461271b57612749565b60ff1985168984015283151560051b890183019550612749565b8a6000528660002060005b858110156127415781548b8201860152908301908801612726565b8a0184019650505b505050505083810360808501526127608186611fd7565b9998505050505050505050565b60006001820161277f5761277f612368565b5060010190565b601f8211156127d057600081815260208120601f850160051c810160208610156127ad5750805b601f850160051c820191505b818110156127cc578281556001016127b9565b5050505b505050565b815167ffffffffffffffff8111156127ef576127ef61239f565b612803816127fd845461232e565b84612786565b602080601f83116001811461283857600084156128205750858301515b600019600386901b1c1916600185901b1785556127cc565b600085815260208120601f198616915b8281101561286757888601518255948401946001909101908401612848565b50858210156128855787850151600019600388901b60f8161c191681555b5050505050600190811b01905550565b81835281816020850137506000828201602090810191909152601f909101601f19169091010190565b8b81526001600160a01b038b811660208301528a166040820152606081018990526080810188905261010060a08201819052600090612900838201898b612895565b905082810360c0840152612915818789612895565b905082810360e084015261292a818587612895565b9e9d505050505050505050505050505056fea26469706673582212207cb6a66b66b5c6e6a43d0967dc34b2da49b9f27ca09eb7f8f84e0faaa77c34ec64736f6c63430008110033516d57724d74576976514e7856643832536933507471356b417a7672324147756933694438546647573263524437",
  "linkReferences": {},
  "deployedLinkReferences": {}
}