{
  "_format": "hh-sol-artifact-1",
  "contractName": "MagicLamp",
  "sourceName": "contracts/MagicLamp.sol",
  "abi": [
    {
      "inputs": [
        {
          "internalType": "address",
          "name": "_talentLayerServiceAddress",
          "type": "address"
        },
        {
          "internalType": "address",
          "name": "_talentLayerIDAddress",
          "type": "address"
        },
        {
          "internalType": "address",
          "name": "_talentLayerEscrowAddress",
          "type": "address"
        },
        {
          "internalType": "address",
          "name": "_talentLayerPlatformIdAddress",
          "type": "address"
        }
      ],
      "stateMutability": "payable",
      "type": "constructor"
    },
    {
      "inputs": [],
      "name": "NotDelegate",
      "type": "error"
    },
    {
      "anonymous": false,
      "inputs": [
        {
          "indexed": false,
          "internalType": "uint256",
          "name": "genieId",
          "type": "uint256"
        },
        {
          "indexed": false,
          "internalType": "string",
          "name": "cid",
          "type": "string"
        }
      ],
      "name": "GenieMetadataUpdated",
      "type": "event"
    },
    {
      "anonymous": false,
      "inputs": [
        {
          "indexed": false,
          "internalType": "uint256",
          "name": "genieId",
          "type": "uint256"
        },
        {
          "indexed": false,
          "internalType": "address",
          "name": "genieAddress",
          "type": "address"
        },
        {
          "indexed": false,
          "internalType": "address",
          "name": "ownerAddress",
          "type": "address"
        },
        {
          "indexed": false,
          "internalType": "uint256",
          "name": "ownerTalentLayerId",
          "type": "uint256"
        },
        {
          "indexed": false,
          "internalType": "uint256",
          "name": "price",
          "type": "uint256"
        },
        {
          "indexed": false,
          "internalType": "string",
          "name": "schemaCid",
          "type": "string"
        },
        {
          "indexed": false,
          "internalType": "string",
          "name": "serviceCid",
          "type": "string"
        },
        {
          "indexed": false,
          "internalType": "string",
          "name": "proposalCid",
          "type": "string"
        }
      ],
      "name": "NewGenie",
      "type": "event"
    },
    {
      "anonymous": false,
      "inputs": [
        {
          "indexed": false,
          "internalType": "uint256",
          "name": "genieId",
          "type": "uint256"
        },
        {
          "indexed": false,
          "internalType": "address",
          "name": "userAddress",
          "type": "address"
        },
        {
          "indexed": false,
          "internalType": "uint8",
          "name": "_rating",
          "type": "uint8"
        }
      ],
      "name": "NewRating",
      "type": "event"
    },
    {
      "anonymous": false,
      "inputs": [
        {
          "indexed": false,
          "internalType": "uint256",
          "name": "wishId",
          "type": "uint256"
        },
        {
          "indexed": false,
          "internalType": "uint256",
          "name": "userId",
          "type": "uint256"
        },
        {
          "indexed": false,
          "internalType": "uint256",
          "name": "genieId",
          "type": "uint256"
        },
        {
          "indexed": false,
          "internalType": "uint256",
          "name": "serviceId",
          "type": "uint256"
        },
        {
          "indexed": false,
          "internalType": "uint256",
          "name": "proposalId",
          "type": "uint256"
        },
        {
          "indexed": false,
          "internalType": "uint256",
          "name": "transactionId",
          "type": "uint256"
        }
      ],
      "name": "NewWish",
      "type": "event"
    },
    {
      "anonymous": false,
      "inputs": [
        {
          "indexed": true,
          "internalType": "address",
          "name": "previousOwner",
          "type": "address"
        },
        {
          "indexed": true,
          "internalType": "address",
          "name": "newOwner",
          "type": "address"
        }
      ],
      "name": "OwnershipTransferred",
      "type": "event"
    },
    {
      "anonymous": false,
      "inputs": [
        {
          "indexed": false,
          "internalType": "uint256",
          "name": "genieId",
          "type": "uint256"
        },
        {
          "indexed": false,
          "internalType": "address",
          "name": "userAddress",
          "type": "address"
        },
        {
          "indexed": false,
          "internalType": "uint8",
          "name": "_rating",
          "type": "uint8"
        },
        {
          "indexed": false,
          "internalType": "int8",
          "name": "diffRating",
          "type": "int8"
        }
      ],
      "name": "UpdateRating",
      "type": "event"
    },
    {
      "anonymous": false,
      "inputs": [
        {
          "indexed": false,
          "internalType": "uint256",
          "name": "wishId",
          "type": "uint256"
        }
      ],
      "name": "WishCancelled",
      "type": "event"
    },
    {
      "anonymous": false,
      "inputs": [
        {
          "indexed": false,
          "internalType": "uint256",
          "name": "wishId",
          "type": "uint256"
        }
      ],
      "name": "WishCompleted",
      "type": "event"
    },
    {
      "inputs": [
        {
          "internalType": "uint256",
          "name": "_genieId",
          "type": "uint256"
        },
        {
          "internalType": "uint256",
          "name": "_wishId",
          "type": "uint256"
        }
      ],
      "name": "cancelExecution",
      "outputs": [],
      "stateMutability": "nonpayable",
      "type": "function"
    },
    {
      "inputs": [
        {
          "internalType": "uint256",
          "name": "_genieId",
          "type": "uint256"
        },
        {
          "internalType": "uint256",
          "name": "_wishId",
          "type": "uint256"
        }
      ],
      "name": "confirmExecution",
      "outputs": [],
      "stateMutability": "nonpayable",
      "type": "function"
    },
    {
      "inputs": [
        {
          "internalType": "address",
          "name": "_genieAddress",
          "type": "address"
        },
        {
          "internalType": "address",
          "name": "_ownerAddress",
          "type": "address"
        },
        {
          "internalType": "uint256",
          "name": "_ownerTalentLayerId",
          "type": "uint256"
        },
        {
          "internalType": "uint256",
          "name": "_price",
          "type": "uint256"
        },
        {
          "internalType": "string",
          "name": "_schemaCid",
          "type": "string"
        },
        {
          "internalType": "string",
          "name": "_serviceCid",
          "type": "string"
        },
        {
          "internalType": "string",
          "name": "_proposalCid",
          "type": "string"
        }
      ],
      "name": "createGenie",
      "outputs": [
        {
          "internalType": "uint256",
          "name": "newGenieId",
          "type": "uint256"
        }
      ],
      "stateMutability": "nonpayable",
      "type": "function"
    },
    {
      "inputs": [
        {
          "internalType": "uint256",
          "name": "",
          "type": "uint256"
        }
      ],
      "name": "genies",
      "outputs": [
        {
          "internalType": "uint256",
          "name": "id",
          "type": "uint256"
        },
        {
          "internalType": "address",
          "name": "genieAddress",
          "type": "address"
        },
        {
          "internalType": "address",
          "name": "ownerAddress",
          "type": "address"
        },
        {
          "internalType": "uint256",
          "name": "ownerTalentLayerId",
          "type": "uint256"
        },
        {
          "internalType": "uint256",
          "name": "price",
          "type": "uint256"
        },
        {
          "internalType": "string",
          "name": "cid",
          "type": "string"
        },
        {
          "internalType": "string",
          "name": "schemaCid",
          "type": "string"
        },
        {
          "internalType": "string",
          "name": "serviceCid",
          "type": "string"
        },
        {
          "internalType": "string",
          "name": "proposalCid",
          "type": "string"
        }
      ],
      "stateMutability": "view",
      "type": "function"
    },
    {
      "inputs": [
        {
          "internalType": "uint256",
          "name": "_genieId",
          "type": "uint256"
        }
      ],
      "name": "getGenie",
      "outputs": [
        {
          "components": [
            {
              "internalType": "uint256",
              "name": "id",
              "type": "uint256"
            },
            {
              "internalType": "address",
              "name": "genieAddress",
              "type": "address"
            },
            {
              "internalType": "address",
              "name": "ownerAddress",
              "type": "address"
            },
            {
              "internalType": "uint256",
              "name": "ownerTalentLayerId",
              "type": "uint256"
            },
            {
              "internalType": "uint256",
              "name": "price",
              "type": "uint256"
            },
            {
              "internalType": "string",
              "name": "cid",
              "type": "string"
            },
            {
              "internalType": "string",
              "name": "schemaCid",
              "type": "string"
            },
            {
              "internalType": "string",
              "name": "serviceCid",
              "type": "string"
            },
            {
              "internalType": "string",
              "name": "proposalCid",
              "type": "string"
            }
          ],
          "internalType": "struct MagicLamp.Genie",
          "name": "",
          "type": "tuple"
        }
      ],
      "stateMutability": "view",
      "type": "function"
    },
    {
      "inputs": [
        {
          "internalType": "address",
          "name": "_userAddress",
          "type": "address"
        },
        {
          "internalType": "uint256",
          "name": "_genieId",
          "type": "uint256"
        }
      ],
      "name": "getHasUsedGenie",
      "outputs": [
        {
          "internalType": "bool",
          "name": "",
          "type": "bool"
        }
      ],
      "stateMutability": "view",
      "type": "function"
    },
    {
      "inputs": [
        {
          "internalType": "uint256",
          "name": "_wishId",
          "type": "uint256"
        }
      ],
      "name": "getWish",
      "outputs": [
        {
          "components": [
            {
              "internalType": "uint256",
              "name": "id",
              "type": "uint256"
            },
            {
              "internalType": "enum MagicLamp.WishStatus",
              "name": "status",
              "type": "uint8"
            },
            {
              "internalType": "uint256",
              "name": "genieId",
              "type": "uint256"
            },
            {
              "internalType": "uint256",
              "name": "userId",
              "type": "uint256"
            },
            {
              "internalType": "uint256",
              "name": "serviceId",
              "type": "uint256"
            },
            {
              "internalType": "uint256",
              "name": "transactionId",
              "type": "uint256"
            }
          ],
          "internalType": "struct MagicLamp.Wish",
          "name": "",
          "type": "tuple"
        }
      ],
      "stateMutability": "view",
      "type": "function"
    },
    {
      "inputs": [
        {
          "internalType": "uint256",
          "name": "_userId",
          "type": "uint256"
        },
        {
          "internalType": "uint256",
          "name": "_genieId",
          "type": "uint256"
        }
      ],
      "name": "makeWish",
      "outputs": [
        {
          "internalType": "uint256",
          "name": "newWishId",
          "type": "uint256"
        }
      ],
      "stateMutability": "payable",
      "type": "function"
    },
    {
      "inputs": [],
      "name": "owner",
      "outputs": [
        {
          "internalType": "address",
          "name": "",
          "type": "address"
        }
      ],
      "stateMutability": "view",
      "type": "function"
    },
    {
      "inputs": [
        {
          "internalType": "uint256",
          "name": "_genieId",
          "type": "uint256"
        },
        {
          "internalType": "uint8",
          "name": "_rating",
          "type": "uint8"
        }
      ],
      "name": "rate",
      "outputs": [],
      "stateMutability": "nonpayable",
      "type": "function"
    },
    {
      "inputs": [],
      "name": "renounceOwnership",
      "outputs": [],
      "stateMutability": "nonpayable",
      "type": "function"
    },
    {
      "inputs": [
        {
          "internalType": "address",
          "name": "newOwner",
          "type": "address"
        }
      ],
      "name": "transferOwnership",
      "outputs": [],
      "stateMutability": "nonpayable",
      "type": "function"
    },
    {
      "inputs": [
        {
          "internalType": "uint256",
          "name": "_genieId",
          "type": "uint256"
        },
        {
          "internalType": "string",
          "name": "_cid",
          "type": "string"
        }
      ],
      "name": "updateGenieMetadata",
      "outputs": [],
      "stateMutability": "nonpayable",
      "type": "function"
    },
    {
      "inputs": [
        {
          "internalType": "uint256",
          "name": "",
          "type": "uint256"
        }
      ],
      "name": "wishes",
      "outputs": [
        {
          "internalType": "uint256",
          "name": "id",
          "type": "uint256"
        },
        {
          "internalType": "enum MagicLamp.WishStatus",
          "name": "status",
          "type": "uint8"
        },
        {
          "internalType": "uint256",
          "name": "genieId",
          "type": "uint256"
        },
        {
          "internalType": "uint256",
          "name": "userId",
          "type": "uint256"
        },
        {
          "internalType": "uint256",
          "name": "serviceId",
          "type": "uint256"
        },
        {
          "internalType": "uint256",
          "name": "transactionId",
          "type": "uint256"
        }
      ],
      "stateMutability": "view",
      "type": "function"
    }
  ],
  "bytecode": "0x60001960015560e0604052602e6080818152906200309860a039600290620000289082620001a6565b5060016007556001600855604051620030c6380380620030c683398101604081905262000055916200028f565b6200006033620000b1565b600a80546001600160a01b03199081166001600160a01b039586161790915560098054821695851695909517909455600b8054851692841692909217909155600c80549093169116179055620002ec565b600080546001600160a01b038381166001600160a01b0319831681178455604051919092169283917f8be0079c531659141344cd1fd0a4f28419497f9722a3daafe3b4186f6b6457e09190a35050565b634e487b7160e01b600052604160045260246000fd5b600181811c908216806200012c57607f821691505b6020821081036200014d57634e487b7160e01b600052602260045260246000fd5b50919050565b601f821115620001a157600081815260208120601f850160051c810160208610156200017c5750805b601f850160051c820191505b818110156200019d5782815560010162000188565b5050505b505050565b81516001600160401b03811115620001c257620001c262000101565b620001da81620001d3845462000117565b8462000153565b602080601f831160018114620002125760008415620001f95750858301515b600019600386901b1c1916600185901b1785556200019d565b600085815260208120601f198616915b82811015620002435788860151825594840194600190910190840162000222565b5085821015620002625787850151600019600388901b60f8161c191681555b5050505050600190811b01905550565b80516001600160a01b03811681146200028a57600080fd5b919050565b60008060008060808587031215620002a657600080fd5b620002b18562000272565b9350620002c16020860162000272565b9250620002d16040860162000272565b9150620002e16060860162000272565b905092959194509250565b612d9c80620002fc6000396000f3fe6080604052600436106100dd5760003560e01c80638da5cb5b1161007f578063bccaaeaa11610059578063bccaaeaa1461028e578063dca47177146102bb578063f2fde38b146102db578063fbc87cbd146102fb57600080fd5b80638da5cb5b14610225578063948d01871461024d578063a6b1be231461026e57600080fd5b80635698a161116100bb5780635698a1611461016a578063715018a61461018a5780638037559e1461019f5780638820e466146101bf57600080fd5b806307aea171146100e2578063202cbac21461010457806353f81cc41461013a575b600080fd5b3480156100ee57600080fd5b506101026100fd3660046121ce565b610330565b005b34801561011057600080fd5b5061012461011f3660046121f0565b61081f565b6040516101319190612241565b60405180910390f35b34801561014657600080fd5b5061015a6101553660046122a0565b6108d9565b6040519015158152602001610131565b34801561017657600080fd5b50610102610185366004612315565b610907565b34801561019657600080fd5b50610102610a33565b3480156101ab57600080fd5b506101026101ba366004612361565b610a47565b3480156101cb57600080fd5b506102136101da3660046121f0565b6004602081905260009182526040909120805460018201546002830154600384015494840154600590940154929460ff90921693909286565b60405161013196959493929190612397565b34801561023157600080fd5b506000546040516001600160a01b039091168152602001610131565b61026061025b3660046121ce565b610c0f565b604051908152602001610131565b34801561027a57600080fd5b506101026102893660046121ce565b61143a565b34801561029a57600080fd5b506102ae6102a93660046121f0565b611867565b604051610131919061241e565b3480156102c757600080fd5b506102606102d63660046124ee565b611b77565b3480156102e757600080fd5b506101026102f63660046125c3565b611e34565b34801561030757600080fd5b5061031b6103163660046121f0565b611ead565b604051610131999897969594939291906125e7565b60008281526003602052604090206001015482906001600160a01b031633146103745760405162461bcd60e51b815260040161036b90612675565b60405180910390fd5b6000828152600460208190526040808320600a54600382015492516331a9108f60e11b81529194936001600160a01b0390911692636352211e926103bc920190815260200190565b602060405180830381865afa1580156103d9573d6000803e3d6000fd5b505050506040513d601f19601f820116820180604052508101906103fd91906126d0565b9050848260020154146104225760405162461bcd60e51b815260040161036b906126ed565b6000600183015460ff16600281111561043d5761043d612209565b146104805760405162461bcd60e51b815260206004820152601360248201527257697368206973206e6f742070656e64696e6760681b604482015260640161036b565b60008581526003602081815260408084208151610120810183528154815260018201546001600160a01b03908116948201949094526002820154909316918301919091529182015460608201526004820154608082015260058201805491929160a0840191906104ef90612734565b80601f016020809104026020016040519081016040528092919081815260200182805461051b90612734565b80156105685780601f1061053d57610100808354040283529160200191610568565b820191906000526020600020905b81548152906001019060200180831161054b57829003601f168201915b5050505050815260200160068201805461058190612734565b80601f01602080910402602001604051908101604052809291908181526020018280546105ad90612734565b80156105fa5780601f106105cf576101008083540402835291602001916105fa565b820191906000526020600020905b8154815290600101906020018083116105dd57829003601f168201915b5050505050815260200160078201805461061390612734565b80601f016020809104026020016040519081016040528092919081815260200182805461063f90612734565b801561068c5780601f106106615761010080835404028352916020019161068c565b820191906000526020600020905b81548152906001019060200180831161066f57829003601f168201915b505050505081526020016008820180546106a590612734565b80601f01602080910402602001604051908101604052809291908181526020018280546106d190612734565b801561071e5780601f106106f35761010080835404028352916020019161071e565b820191906000526020600020905b81548152906001019060200180831161070157829003601f168201915b505050919092525050600b54600386015460058701546080850151604051633a1121cd60e01b81526004810193909352602483019190915260448201529293506001600160a01b031691633a1121cd9150606401600060405180830381600087803b15801561078c57600080fd5b505af11580156107a0573d6000803e3d6000fd5b505050506001838101805460ff1916828002179055506001600160a01b03821660009081526006602090815260408083208984528252918290208054600160ff1990911617905590518681527fd4d1a1f88bcb6e9638b0b61e2cd828e118e18ea4b6c5d004b5832b51bd0a2ed0910160405180910390a1505050505050565b6108596040805160c08101909152600080825260208201908152602001600081526020016000815260200160008152602001600081525090565b600082815260046020908152604091829020825160c08101909352805483526001810154909183019060ff16600281111561089657610896612209565b60028111156108a7576108a7612209565b815260028201546020820152600382015460408201526004820154606082015260059091015460809091015292915050565b6001600160a01b038216600090815260066020908152604080832084845290915290205460ff165b92915050565b60008381526003602052604090819020600a549151631847c06b60e01b815233600482015290916001600160a01b031690631847c06b90602401602060405180830381865afa15801561095e573d6000803e3d6000fd5b505050506040513d601f19601f82011682018060405250810190610982919061276e565b8160030154146109e25760405162461bcd60e51b815260206004820152602560248201527f53656e646572206164647265737320646f6573206e6f74206f776e207468652060448201526467656e696560d81b606482015260840161036b565b600581016109f18385836127ec565b507faa044702a42c79df1d272de3f5b2e3df1da111229504e10bbf1a230626193585848484604051610a25939291906128d6565b60405180910390a150505050565b610a3b612124565b610a45600061217e565b565b336000908152600660209081526040808320858452909152902054829060ff16610ab35760405162461bcd60e51b815260206004820181905260248201527f5573657220686173206e6f7420657865637574656420746869732067656e6965604482015260640161036b565b60008260ff16118015610aca575060058260ff1611155b610b165760405162461bcd60e51b815260206004820152601e60248201527f526174696e67206d757374206265206265747765656e203120616e6420350000604482015260640161036b565b600083815260056020908152604080832033845290915290208054610100900460ff16610b9757805461ffff191660ff841690811761010017825560408051868152336020820152908101919091527f3b1c8e569a0b64ff13d4a95c71721452366e52d5197f50433b98e3157fe3f7b29060600160405180910390a1610c09565b8054600090610ba99060ff168561290f565b825460ff191660ff861690811784556040805188815233602082015290810191909152600082900b60608201529091507f82836cdd45aa735828564cbca535f1da4e89a0e1be0acb865652e8a14010f179906080015b60405180910390a1505b50505050565b60008181526003602081815260408084208151610120810183528154815260018201546001600160a01b03908116948201949094526002820154909316918301919091529182015460608201526004820154608082015260058201805484939160a0840191610c7d90612734565b80601f0160208091040260200160405190810160405280929190818152602001828054610ca990612734565b8015610cf65780601f10610ccb57610100808354040283529160200191610cf6565b820191906000526020600020905b815481529060010190602001808311610cd957829003601f168201915b50505050508152602001600682018054610d0f90612734565b80601f0160208091040260200160405190810160405280929190818152602001828054610d3b90612734565b8015610d885780601f10610d5d57610100808354040283529160200191610d88565b820191906000526020600020905b815481529060010190602001808311610d6b57829003601f168201915b50505050508152602001600782018054610da190612734565b80601f0160208091040260200160405190810160405280929190818152602001828054610dcd90612734565b8015610e1a5780601f10610def57610100808354040283529160200191610e1a565b820191906000526020600020905b815481529060010190602001808311610dfd57829003601f168201915b50505050508152602001600882018054610e3390612734565b80601f0160208091040260200160405190810160405280929190818152602001828054610e5f90612734565b8015610eac5780601f10610e8157610100808354040283529160200191610eac565b820191906000526020600020905b815481529060010190602001808311610e8f57829003601f168201915b505050919092525050600a546040516331a9108f60e11b8152600481018890529293506000926001600160a01b039091169150636352211e90602401602060405180830381865afa158015610f05573d6000803e3d6000fd5b505050506040513d601f19601f82011682018060405250810190610f2991906126d0565b90506001600160a01b0381163314610f925760405162461bcd60e51b815260206004820152602660248201527f53656e646572206164647265737320646f6573206e6f74206f776e20746865206044820152651d5cd95c925960d21b606482015260840161036b565b600c54604051630b7a459360e31b8152600160048201526000916001600160a01b031690635bd22c9890602401600060405180830381865afa158015610fdc573d6000803e3d6000fd5b505050506040513d6000823e601f3d908101601f1916820160405261100491908101906129ea565b90506000600b60009054906101000a90046001600160a01b03166001600160a01b031663f6e5826c6040518163ffffffff1660e01b8152600401602060405180830381865afa15801561105b573d6000803e3d6000fd5b505050506040513d601f19601f8201168201806040525081019061107f9190612b16565b61ffff169050600061271061ffff16836080015161ffff1686608001516110a69190612b31565b846060015161ffff1687608001516110be9190612b31565b8488608001516110ce9190612b31565b6110d89190612b48565b6110e29190612b48565b6110ec9190612b5b565b85608001516110fb9190612b48565b905034811461115d5760405162461bcd60e51b815260206004820152602860248201527f6d73672e76616c756520646f6573206e6f74206d61746368207468652067656e604482015267696520707269636560c01b606482015260840161036b565b60095460e086015160405163699c764d60e11b81526000926001600160a01b03169163d338ec9a91611197918d9160019190600401612b7d565b6020604051808303816000875af11580156111b6573d6000803e3d6000fd5b505050506040513d601f19601f820116820180604052508101906111da919061276e565b600954606088015160808901516101008a0151600180546040516313ca98db60e01b81529697506000966001600160a01b03909616956313ca98db9561122d9590948a948a949293909290600401612bba565b6020604051808303816000875af115801561124c573d6000803e3d6000fd5b505050506040513d601f19601f82011682018060405250810190611270919061276e565b90506000600b60009054906101000a90046001600160a01b03166001600160a01b031663aa4f411c858d868660028e61010001516040518763ffffffff1660e01b81526004016112c4959493929190612c1b565b60206040518083038185885af11580156112e2573d6000803e3d6000fd5b50505050506040513d601f19601f82011682018060405250810190611307919061276e565b6008546040805160c081019091528181529192509060208101600081526020018c81526020018d815260200185815260200183815250600460008381526020019081526020016000206000820151816000015560208201518160010160006101000a81548160ff0219169083600281111561138457611384612209565b021790555060408201518160020155606082015181600301556080820151816004015560a082015181600501559050507f2f38a0792f0b2aa2538b4fd1edcb5cb161fd951d69cc9fda90dcbf3b53e6f8d1818d8d87878760405161141096959493929190958652602086019490945260408501929092526060840152608083015260a082015260c00190565b60405180910390a160086000815461142790612ccf565b909155509b9a5050505050505050505050565b60008281526003602052604090206001015482906001600160a01b031633146114755760405162461bcd60e51b815260040161036b90612675565b6000828152600460205260409020600281015484146114a65760405162461bcd60e51b815260040161036b906126ed565b6000600182015460ff1660028111156114c1576114c1612209565b146115045760405162461bcd60e51b815260206004820152601360248201527257697368206973206e6f742070656e64696e6760681b604482015260640161036b565b60008481526003602081815260408084208151610120810183528154815260018201546001600160a01b03908116948201949094526002820154909316918301919091529182015460608201526004820154608082015260058201805491929160a08401919061157390612734565b80601f016020809104026020016040519081016040528092919081815260200182805461159f90612734565b80156115ec5780601f106115c1576101008083540402835291602001916115ec565b820191906000526020600020905b8154815290600101906020018083116115cf57829003601f168201915b5050505050815260200160068201805461160590612734565b80601f016020809104026020016040519081016040528092919081815260200182805461163190612734565b801561167e5780601f106116535761010080835404028352916020019161167e565b820191906000526020600020905b81548152906001019060200180831161166157829003601f168201915b5050505050815260200160078201805461169790612734565b80601f01602080910402602001604051908101604052809291908181526020018280546116c390612734565b80156117105780601f106116e557610100808354040283529160200191611710565b820191906000526020600020905b8154815290600101906020018083116116f357829003601f168201915b5050505050815260200160088201805461172990612734565b80601f016020809104026020016040519081016040528092919081815260200182805461175590612734565b80156117a25780601f10611777576101008083540402835291602001916117a2565b820191906000526020600020905b81548152906001019060200180831161178557829003601f168201915b505050919092525050600b54606083015160058601546080850151604051639dcc5daf60e01b81526004810193909352602483019190915260448201529293506001600160a01b031691639dcc5daf9150606401600060405180830381600087803b15801561181057600080fd5b505af1158015611824573d6000803e3d6000fd5b5050505060018201805460ff191660021790556040518481527fbd5d67b814ce7d358eea94f5504b4fb2c23b26fd20184d93d217ea98fe9a3e6b90602001610bff565b6118c86040518061012001604052806000815260200160006001600160a01b0316815260200160006001600160a01b031681526020016000815260200160008152602001606081526020016060815260200160608152602001606081525090565b6000828152600360208181526040928390208351610120810185528154815260018201546001600160a01b03908116938201939093526002820154909216938201939093529082015460608201526004820154608082015260058201805491929160a08401919061193890612734565b80601f016020809104026020016040519081016040528092919081815260200182805461196490612734565b80156119b15780601f10611986576101008083540402835291602001916119b1565b820191906000526020600020905b81548152906001019060200180831161199457829003601f168201915b505050505081526020016006820180546119ca90612734565b80601f01602080910402602001604051908101604052809291908181526020018280546119f690612734565b8015611a435780601f10611a1857610100808354040283529160200191611a43565b820191906000526020600020905b815481529060010190602001808311611a2657829003601f168201915b50505050508152602001600782018054611a5c90612734565b80601f0160208091040260200160405190810160405280929190818152602001828054611a8890612734565b8015611ad55780601f10611aaa57610100808354040283529160200191611ad5565b820191906000526020600020905b815481529060010190602001808311611ab857829003601f168201915b50505050508152602001600882018054611aee90612734565b80601f0160208091040260200160405190810160405280929190818152602001828054611b1a90612734565b8015611b675780601f10611b3c57610100808354040283529160200191611b67565b820191906000526020600020905b815481529060010190602001808311611b4a57829003601f168201915b5050505050815250509050919050565b60006001600160a01b038b16611bcf5760405162461bcd60e51b815260206004820152601960248201527f47656e696520616464726573732063616e6e6f74206265203000000000000000604482015260640161036b565b6001600160a01b038a16611c255760405162461bcd60e51b815260206004820152601960248201527f4f776e657220616464726573732063616e6e6f74206265203000000000000000604482015260640161036b565b600a546040516331a9108f60e11b8152600481018b90526001600160a01b038c8116921690636352211e90602401602060405180830381865afa158015611c70573d6000803e3d6000fd5b505050506040513d601f19601f82011682018060405250810190611c9491906126d0565b6001600160a01b031614611d045760405162461bcd60e51b815260206004820152603160248201527f4f776e6572206164647265737320646f6573206e6f74206f776e20746865206f6044820152701ddb995c95185b195b9d13185e595c9259607a1b606482015260840161036b565b6000600754905060006003600083815260200190815260200160002090508181600001819055508c8160010160006101000a8154816001600160a01b0302191690836001600160a01b031602179055508b8160020160006101000a8154816001600160a01b0302191690836001600160a01b031602179055508a81600301819055508981600401819055508888826006019182611da29291906127ec565b5060078101611db28789836127ec565b5060088101611dc28587836127ec565b507f3cd69f7048cc5ff18c4b8675f3dbb186191fe35e8a259bb181c4fb04e31925de6007548e8e8e8e8e8e8e8e8e8e604051611e089b9a99989796959493929190612ce8565b60405180910390a1600760008154611e1f90612ccf565b90915550909c9b505050505050505050505050565b611e3c612124565b6001600160a01b038116611ea15760405162461bcd60e51b815260206004820152602660248201527f4f776e61626c653a206e6577206f776e657220697320746865207a65726f206160448201526564647265737360d01b606482015260840161036b565b611eaa8161217e565b50565b600360208190526000918252604090912080546001820154600283015493830154600484015460058501805494966001600160a01b039485169694169492939192611ef790612734565b80601f0160208091040260200160405190810160405280929190818152602001828054611f2390612734565b8015611f705780601f10611f4557610100808354040283529160200191611f70565b820191906000526020600020905b815481529060010190602001808311611f5357829003601f168201915b505050505090806006018054611f8590612734565b80601f0160208091040260200160405190810160405280929190818152602001828054611fb190612734565b8015611ffe5780601f10611fd357610100808354040283529160200191611ffe565b820191906000526020600020905b815481529060010190602001808311611fe157829003601f168201915b50505050509080600701805461201390612734565b80601f016020809104026020016040519081016040528092919081815260200182805461203f90612734565b801561208c5780601f106120615761010080835404028352916020019161208c565b820191906000526020600020905b81548152906001019060200180831161206f57829003601f168201915b5050505050908060080180546120a190612734565b80601f01602080910402602001604051908101604052809291908181526020018280546120cd90612734565b801561211a5780601f106120ef5761010080835404028352916020019161211a565b820191906000526020600020905b8154815290600101906020018083116120fd57829003601f168201915b5050505050905089565b6000546001600160a01b03163314610a455760405162461bcd60e51b815260206004820181905260248201527f4f776e61626c653a2063616c6c6572206973206e6f7420746865206f776e6572604482015260640161036b565b600080546001600160a01b038381166001600160a01b0319831681178455604051919092169283917f8be0079c531659141344cd1fd0a4f28419497f9722a3daafe3b4186f6b6457e09190a35050565b600080604083850312156121e157600080fd5b50508035926020909101359150565b60006020828403121561220257600080fd5b5035919050565b634e487b7160e01b600052602160045260246000fd5b6003811061223d57634e487b7160e01b600052602160045260246000fd5b9052565b8151815260208083015160c083019161225c9084018261221f565b5060408301516040830152606083015160608301526080830151608083015260a083015160a083015292915050565b6001600160a01b0381168114611eaa57600080fd5b600080604083850312156122b357600080fd5b82356122be8161228b565b946020939093013593505050565b60008083601f8401126122de57600080fd5b50813567ffffffffffffffff8111156122f657600080fd5b60208301915083602082850101111561230e57600080fd5b9250929050565b60008060006040848603121561232a57600080fd5b83359250602084013567ffffffffffffffff81111561234857600080fd5b612354868287016122cc565b9497909650939450505050565b6000806040838503121561237457600080fd5b82359150602083013560ff8116811461238c57600080fd5b809150509250929050565b86815260c081016123ab602083018861221f565b8560408301528460608301528360808301528260a0830152979650505050505050565b60005b838110156123e95781810151838201526020016123d1565b50506000910152565b6000815180845261240a8160208601602086016123ce565b601f01601f19169290920160200192915050565b60208152815160208201526000602083015161244560408401826001600160a01b03169052565b5060408301516001600160a01b03811660608401525060608301516080830152608083015160a083015260a08301516101208060c085015261248b6101408501836123f2565b915060c0850151601f19808685030160e08701526124a984836123f2565b935060e087015191506101008187860301818801526124c885846123f2565b9088015187820390920184880152935090506124e483826123f2565b9695505050505050565b60008060008060008060008060008060e08b8d03121561250d57600080fd5b8a356125188161228b565b995060208b01356125288161228b565b985060408b0135975060608b0135965060808b013567ffffffffffffffff8082111561255357600080fd5b61255f8e838f016122cc565b909850965060a08d013591508082111561257857600080fd5b6125848e838f016122cc565b909650945060c08d013591508082111561259d57600080fd5b506125aa8d828e016122cc565b915080935050809150509295989b9194979a5092959850565b6000602082840312156125d557600080fd5b81356125e08161228b565b9392505050565b8981526001600160a01b03898116602083015288166040820152606081018790526080810186905261012060a08201819052600090612628838201886123f2565b905082810360c084015261263c81876123f2565b905082810360e084015261265081866123f2565b905082810361010084015261266581856123f2565b9c9b505050505050505050505050565b6020808252602b908201527f4f6e6c79207468652072696768742047656e69652063616e2063616c6c20746860408201526a34b990333ab731ba34b7b760a91b606082015260800190565b80516126cb8161228b565b919050565b6000602082840312156126e257600080fd5b81516125e08161228b565b60208082526027908201527f5769736820646f6573206e6f742062656c6f6e6720746f207468652072696768604082015266742067656e696560c81b606082015260800190565b600181811c9082168061274857607f821691505b60208210810361276857634e487b7160e01b600052602260045260246000fd5b50919050565b60006020828403121561278057600080fd5b5051919050565b634e487b7160e01b600052604160045260246000fd5b601f8211156127e757600081815260208120601f850160051c810160208610156127c45750805b601f850160051c820191505b818110156127e3578281556001016127d0565b5050505b505050565b67ffffffffffffffff83111561280457612804612787565b612818836128128354612734565b8361279d565b6000601f84116001811461284c57600085156128345750838201355b600019600387901b1c1916600186901b1783556128a6565b600083815260209020601f19861690835b8281101561287d578685013582556020948501946001909201910161285d565b508682101561289a5760001960f88860031b161c19848701351681555b505060018560011b0183555b5050505050565b81835281816020850137506000828201602090810191909152601f909101601f19169091010190565b8381526040602082015260006128f06040830184866128ad565b95945050505050565b634e487b7160e01b600052601160045260246000fd5b600082810b9082900b03607f198112607f82131715610901576109016128f9565b604051610160810167ffffffffffffffff8111828210171561295457612954612787565b60405290565b600082601f83011261296b57600080fd5b815167ffffffffffffffff8082111561298657612986612787565b604051601f8301601f19908116603f011681019082821181831017156129ae576129ae612787565b816040528381528660208588010111156129c757600080fd5b6124e48460208301602089016123ce565b805161ffff811681146126cb57600080fd5b6000602082840312156129fc57600080fd5b815167ffffffffffffffff80821115612a1457600080fd5b908301906101608286031215612a2957600080fd5b612a31612930565b82518152602083015182811115612a4757600080fd5b612a538782860161295a565b602083015250604083015182811115612a6b57600080fd5b612a778782860161295a565b604083015250612a89606084016129d8565b6060820152612a9a608084016129d8565b608082015260a083015160a082015260c083015160c0820152612abf60e084016126c0565b60e08201526101008084015183811115612ad857600080fd5b612ae48882870161295a565b828401525050610120915081830151828201526101409150612b078284016126c0565b91810191909152949350505050565b600060208284031215612b2857600080fd5b6125e0826129d8565b8082028115828204841417610901576109016128f9565b80820180821115610901576109016128f9565b600082612b7857634e487b7160e01b600052601260045260246000fd5b500490565b83815260ff83166020820152608060408201526000612b9f60808301846123f2565b82810360608401526000815260208101915050949350505050565b600061010089835288602084015260018060a01b038816604084015286606084015260ff861660808401528060a0840152612bf7818401866123f2565b60c0840194909452505080820360e090910152600081526020019695505050505050565b85815260006020868184015285604084015260a0606084015260008554612c4181612734565b8060a087015260c0600180841660008114612c635760018114612c7d57612cab565b60ff1985168984015283151560051b890183019550612cab565b8a6000528660002060005b85811015612ca35781548b8201860152908301908801612c88565b8a0184019650505b50505050508381036080850152612cc281866123f2565b9998505050505050505050565b600060018201612ce157612ce16128f9565b5060010190565b8b81526001600160a01b038b811660208301528a166040820152606081018990526080810188905261010060a08201819052600090612d2a838201898b6128ad565b905082810360c0840152612d3f8187896128ad565b905082810360e0840152612d548185876128ad565b9e9d505050505050505050505050505056fea2646970667358221220edfd2cc3cd5fa94b1bf6964c095f4e42a483a18108d1ed1580a03b5597e4e6dd64736f6c63430008110033516d57724d74576976514e7856643832536933507471356b417a7672324147756933694438546647573263524437",
  "linkReferences": {},
  "deployedLinkReferences": {}
}